:020000040800F2
:1000000000A00020991D00086D1500087915000852
:100010008D150008A1150008B515000800000000A6
:10002000000000000000000000000000C9150008EA
:10003000DD15000800000000F11500080516000895
:10004000E11D0008E11D0008E11D0008E11D000898
:10005000E11D0008E11D0008E11D0008E11D000888
:10006000E11D0008E11D0008E11D0008E11D000878
:10007000E11D0008E11D0008E11D0008E11D000868
:10008000E11D0008E11D0008E11D0008E11D000858
:100090001D070008E11D0008E11D0008E11D000822
:1000A000E11D0008E11D0008E11D0008E11D000838
:1000B000E11D0008E11D0008E11D0008E11D000828
:1000C000E11D0008E11D0008E11D0008E11D000818
:1000D000E11D0008E11D0008E11D0008E11D000808
:1000E000E11D0008E11D0008E11D0008E11D0008F8
:1000F000E11D0008E11D0008E11D0008E11D0008E8
:10010000000000000000000000000000E11D0008E9
:10011000E11D0008E11D0008E11D0008E11D0008C7
:10012000E11D0008E11D0008E11D0008E11D0008B7
:10013000E11D0008E11D00080000000000000000B3
:10014000E11D0008E11D0008E11D0008000000009D
:10015000000000000000000000000000000000009F
:100160000000000000000000E11D0008E11D000883
:10017000E11D000800000000000000000000000079
:0801800000000000E11D000871
:10018800044B05481B1A062B02D9044B03B1184728
:10019800704700BF4B040020480400200000000006
:1001A80005490648091A891001EBD171491002D096
:1001B800034B03B118477047480400204804002047
:1001C8000000000010B5064C237843B9FFF7D8FFAC
:1001D800044B13B10448AFF300800123237010BD12
:1001E80048040020000000008801000808B5084BFA
:1001F8001BB108480849AFF300800848036813B9E1
:10020800BDE80840CCE7064B002BF9D09847F7E744
:1002180000000000880100084C0400204804002069
:100228000000000080B582B000AF00F091F900F046
:1002380025FA00F055F800233B7100237B71142345
:10024800BB710023FB711348134900F049F9134BA4
:100258001B6803F07F03002B03D00E48104900F001
:100268003FF90C480F4900F03BF90F4800F020F81F
:100278000E4B1B78002B0CD00C4B00221A703B1D28
:1002880018464FF48071042201F048FD012001F066
:1002980001FCD8E700380140D81F00084C5C00403A
:1002A800E01F00086804002040420F00640400209A
:1002B80080B582B000AF78607A681346DB001344DB
:1002C800DB007B6000F00CF800BF044B1A687B6809
:1002D8009A42FAD30837BD4680BD00BF041000E03B
:1002E80080B400AF094A094B1B6843F08073136060
:1002F800074B00221A60074A064B1B6843F00103AC
:100308001360BD465DF8047B704700BFFCED00E05C
:10031800041000E0001000E080B483B000AF786003
:100328007B681C4A934205D11B4B4FF480429A616B
:10033800002328E07B68194A934205D1164B4FF4F5
:100348000032DA6100231EE07B68154A934205D12A
:10035800114B4FF48022DA61002314E07B68114AC4
:10036800934205D10C4B4FF40022DA6100230AE0D6
:100378007B680D4A934205D1074B4FF48012DA612E
:10038800002300E0FF2318460C37BD465DF8047BC8
:10039800704700BF00380140001002400044004090
:1003A80000480040004C00400050004080B485B038
:1003B80000AFF860B9607A603B60FB680C221A6095
:1003C800BB69092B06D1FB681B6843F48052FB68A4
:1003D8001A6008E0BB69072B05D1FB681B6843F06E
:1003E8008052FB681A603B68B3F5806F06D1FB68E2
:1003F8001B6843F48062FB681A6009E03B68B3F548
:10040800C06F05D1FB681B6843F4C062FB681A60C3
:100418007B68B3F5005F0AD07B68002B07D07B6848
:10042800B3F5805F03D07B68B3F5405F05D1FB6807
:100438005A687B681A43FB685A60FB68164A9342FD
:1004480007D1164ABB68B2FBF3F39AB2FB689A81EC
:1004580016E0FB68124A93420BD8FB68114A934294
:1004680007D8FB68104A934203D8FB680F4A9342A7
:1004780006D90F4ABB68B2FBF3F39AB2FB689A81BC
:10048800FB681B6843F00102FB681A601437BD461D
:100498005DF8047B704700BF0038014000A24A04A1
:1004A800FF430040FF470040FF4B0040FF4F004024
:1004B8000051250280B483B000AF78600B46FB7012
:1004C80000BF7B68DB6903F08003002BF9D0FB7861
:1004D8009AB27B681A850C37BD465DF8047B704775
:1004E80080B584B000AF786039600023FB600AE013
:1004F800FB683A6813441B7878681946FFF7DAFFF7
:10050800FB680133FB60FB683A6813441B78002BD7
:10051800EED11037BD4680BD80B584B000AF03462C
:10052800FB71FA7907F1080310461946102201F009
:10053800B1FC06482021FFF7BDFF07F10803034877
:100548001946FFF7CDFF1037BD4680BD0038014082
:1005580080B584B002AF4FF40030012101F066F895
:100568004FF4C0633B6002233B7103237B7100237C
:10057800BB710023FB713B464FF09040194601F0D8
:1005880091F84FF090400921072201F01FF94FF030
:1005980090400A21072201F019F90848FFF7BCFE2C
:1005A800082300930023019304484FF4613100228B
:1005B8000023FFF7FBFE0837BD4680BD0038014029
:1005C80080B582B000AF4FF40030012101F02EF861
:1005D8004FF4C0533B6002233B7103237B7100231C
:1005E800BB710023FB713B464FF09040194601F068
:1005F80059F84FF090400B210E2201F0E7F84FF028
:1006080090400C210E2201F0E1F80837BD4680BD6C
:1006180080B500AF4FF08050012101F025F800208F
:1006280000F0F6FF4FF40000012101F01DF8064B21
:100638004FF6FD721A60054B00221A60024B4FF606
:10064800FE721A6080BD00BF405C0040445C004000
:1006580080B582B000AF4FF4A06001F0FFF814231A
:100668003B7102237B710023BB710123FB713B1D8E
:10067800184601F005F90837BD4680BD80B500AFC2
:10068800FFF79EFFFFF7E4FFFFF7C2FF034B0022CF
:100698001A60024B4FF47C421A6080BD405C0040F7
:1006A80080B485B000AF0346FB710223BB60002312
:1006B800FB601EE0FB68DBB29B0003F1804303F59F
:1006C800B843FA68D2B2920002F1804202F5B84209
:1006D800126892B2114640F60F720A4042F4004284
:1006E80042F08002F968C9B20A431A60FB68013314
:1006F800FB60FA68BB689A42DCD3054AFB7963F071
:100708007F03DBB213601437BD465DF8047B704786
:100718004C5C004080B582B000AF374B1B68FB8053
:10072800FB8803F48063002B0AD0334B4FF6FF326B
:100738001A6000F01FFD31483021FFF7BBFE58E07A
:10074800FB881BB2002B18DAFB8803F00F03002B81
:1007580002D100F059F84CE0294A294B1B689BB29A
:10076800194648F60F730B401360264B01221A7086
:1007780022483121FFF79EFE3BE0FB8803F48043CB
:10078800002B08D01C4B4BF6FF721A601B48322115
:10079800FFF790FE2DE0FB8803F40053002B08D0F0
:1007A800154B4DF6FF721A6014483321FFF782FE8D
:1007B8001FE0FB8803F48053002B08D00E4B4EF645
:1007C800FF721A600D483421FFF774FE11E0FB88B0
:1007D80003F40063002B08D0074B4FF2FF721A6036
:1007E80006483521FFF766FE03E004483621FFF787
:1007F80061FE0837BD4680BD445C004000380140BA
:10080800045C00406404002080B582B000AF434B14
:100818001B689AB2424B1A80414B1B8803F0800335
:10082800002B0BD03D4A3D4B1B689BB2194648F63E
:100838000F730B40136000F0BBFA6BE0384B1B885A
:1008480003F40063002B49D0344A344B1B689BB235
:10085800194640F68F730B401360324B01229A768B
:10086800304B0422DA76304B1B689BB21A462F4B6A
:1008780013445B001B689BB25B0003F1804303F5E4
:10088800C0437B607B685A1C7A601A78254B1A70C3
:100898007B685A1C7A601A78224B5A707B685A888F
:1008A800204B5A807B68DA881E4B9A807B685A896D
:1008B8001C4BDA801E480D21FFF7FCFD1C480A215D
:1008C800FFF7F8FD00F036F8164BDB88002B02D155
:1008D80000F070F81EE000F03BF91BE0104B1B889D
:1008E8009BB21BB2002B0DDA0C4A0C4B1B689BB257
:1008F800194640F68F730B4013600D483721FFF7F8
:10090800D9FD07E00A482421FFF7D4FD0848312122
:10091800FFF7D0FD0837BD4680BD00BF005C004032
:100928007204002078040020505C0040043000204D
:100938000038014080B500AF1C4B1B781846FFF704
:10094800EBFD1A4B5B781846FFF7E6FD174B5B8803
:100958001B0A9BB2DBB21846FFF7DEFD134B5B8820
:10096800DBB21846FFF7D8FD104B9B881B0A9BB2D9
:10097800DBB21846FFF7D0FD0C4B9B88DBB218465C
:10098800FFF7CAFD094BDB881B0A9BB2DBB218468E
:10099800FFF7C2FD054BDB88DBB21846FFF7BCFD4D
:1009A80003482021FFF786FD80BD00BF78040020A2
:1009B8000038014098B500AF5F4B1B7803F0600327
:1009C800002B42D15C4B5B78052B07D15A4B012297
:1009D800DA765A486121FFF76DFD36E0564B5B78B1
:1009E800012B07D155486221FFF764FD524B0122C4
:1009F800DA762AE0504B5B78092B0FD14E4B5B8897
:100A0800DAB24D4B5A724C4B04225A764A4B0122A9
:100A1800DA764A486321FFF74DFD16E0464B5B78CE
:100A2800032B07D145486421FFF744FD424B0122BF
:100A3800DA760AE0404B5B780B2B06D13F486521FC
:100A4800FFF738FD3C4B0122DA763B4BDB7E042B6B
:100A580001D100F0B7FC384BDB7E012B37D137488A
:100A68006621FFF727FD344B06229A76344B1B6824
:100A78009BB21A46334B13445B001A46002313609B
:100A8800314B1B689BB223F4E04323F040039CB234
:100A980084F010039CB284F020039CB22A4A2B4BAA
:100AA80023439BB21360284B1B689BB223F48043FB
:100AB80023F070039CB284F480539CB284F40053F6
:100AC8009CB2214A214B23439BB2136032E01A4B5C
:100AD800DB7E032B03D0184BDB7E042B2AD117486F
:100AE8002421FFF7E7FC15483221FFF7E3FC164BFA
:100AF8001B689BB223F4804323F070039CB284F4F8
:100B080080539CB284F400539CB20F4A0F4B23438A
:100B18009BB213600C4B1B689BB223F4E04323F099
:100B280040039CB284F010039CB2074A074B23434E
:100B38009BB2136098BD00BF7804002000380140C4
:100B4800505C004002300020005C00408080FFFFC5
:100B580098B500AF914B1B7803F06003002B40F071
:100B6800AF808E4B5B78082B1BD18C4B5B7E022BA6
:100B780017D98A4B5B88002B13D1884B9B88002B95
:100B88000FD1864BDB88012B0BD1844B1B78802B34
:100B980007D1824800F0D8FA81486821FFF78AFC1B
:100BA8008EE07E4B5B78062B3DD17C4B0022DA81B0
:100BB8007A4B5B881B0A9BB2013B052B2ED801A2FE
:100BC80052F823F0E50B0008050C0008150C000886
:100BD800250C0008250C0008F50B00086F4800F0EC
:100BE80023FB6F486921FFF765FC1BE06B4B032271
:100BF800DA766B485421FFF75DFC13E0674800F094
:100C080029FB67486A21FFF755FC0BE0634800F0B1
:100C18004FFB63486B21FFF74DFC03E05F4B042259
:100C2800DA7600BF4CE05D4B5B780A2B1DD15B4B3D
:100C38005B7E042B19D1594B5B88002B15D1574B80
:100C4800DB88012B11D1554B1B78812B0DD1534BD0
:100C5800544A5A61514B0122DA81504B0122DA760B
:100C68004F486C21FFF726FC2AE04C4B5B78002BA1
:100C78000FD14A4B5B88002B0BD1484BDB88022BEA
:100C880007D1464800F0E4F945486D21FFF712FC0A
:100C980016E0424B5B78072B07D141486E21FFF7DE
:100CA80009FC3E4B0322DA760AE03C4B5B780C2BBE
:100CB80006D13B486F21FFF7FDFB384B0322DA765C
:100CC800364BDB7E042B05D135487021FFF7F2FB4C
:100CD80000F034FB314BDB89002B03D12F4BDB7E3B
:100CE800012B2BD12D4BDA892C4B1A822B4B02224C
:100CF8009A762A4BDA88294BDB899A4203D1274B0B
:100D080000221A7613E0254BDA88244BDB899A42B5
:100D18000DD9224BDB8903F03F039BB2002B03D193
:100D28001E4B01221A7602E01C4B00221A761C4840
:100D38007121FFF7BFFB00F03BF82EE0174BDB7E7D
:100D4800032B03D0154BDB7E042B26D114487221CC
:100D5800FFF7B0FB144B1B689BB223F4E04323F06E
:100D680040039CB284F010039CB20F4A0F4B2343FC
:100D78009BB213600C4B1B689BB223F4804323F097
:100D880070039CB284F480539CB284F400539CB2E8
:100D9800054A064B23439BB2136098BD7804002094
:100DA8000038014083040020005C00408080FFFF81
:100DB80098B500AFA04B9B7E062B4FD19E4B5B781E
:100DC800052B0CD19C4B5B88DBB21846FFF768FCFF
:100DD800994B03225A76984B00229A762AE0964B32
:100DE8005B78012B07D195487321FFF763FB924B82
:100DF80000229A761EE0904B5B78092B03D18E4B2C
:100E080000229A7616E08C4B5B78032B07D18B482F
:100E18007421FFF74FFB884B00229A760AE0864B35
:100E28005B780B2B06D185487521FFF743FB824B76
:100E380000229A76824B1B689BB223F4804323F0EE
:100E480070039CB284F480539CB284F400539CB227
:100E58007B4A7C4B23439BB21360ECE0764B1B7EB2
:100E6800012B28D1744B1B8A002B24D1764B1B688D
:100E78009BB21A46754B13445B001A460023136055
:100E88006F4B1B689BB223F4E04323F040039CB2F2
:100E980084F010039CB284F020039CB2684A694B2A
:100EA80023439BB21360644B07229A7663487621EA
:100EB800FFF700FBBFE0604B1B8A002B1BD15E4B8A
:100EC8009B7E072B17D15E4B1B689BB223F4804394
:100ED80023F070039CB284F480539CB284F40053D2
:100EE8009CB2574A574B23439BB213605348772110
:100EF800FFF7E0FA9FE0504B9B7E022B40F09B806F
:100F08004D4BDB89402B1ED84B4B5A694A4BDB892A
:100F1800104658211A4600F001FF4B4B1B689BB244
:100F28001A464A4B13445B001A46434BDB8913604D
:100F3800414B00221A82404B07229A763F4878217B
:100F4800FFF7B8FA64E03C4B1B8A402B25D93A4B93
:100F58005B69394AD2891146374A128A8A1A134478
:100F680018465821402200F0D9FE374B1B689BB227
:100F78001A46364B13445B001A46402313602E4B27
:100F88001B8A403B9AB22C4B1A822B4B02229A7630
:100F98002A487921FFF78EFA3AE0274B5B69264AFF
:100FA800D2891146244A128A8A1A1A44224B1B8A69
:100FB800104658211A4600F0B1FE234B1B689BB21D
:100FC8001A46224B13445B001A461B4B1B8A1360BC
:100FD8001B4B1B689BB223F4804323F070039CB225
:100FE80084F480539CB284F400539CB2144A154B89
:100FF80023439BB21360002000F0C4FD0E4B002277
:101008001A820D4B07229A760C487A21FFF752FA7A
:101018000B4B1B689BB223F4E04323F040039CB2C4
:1010280084F010039CB284F020039CB2044A054B60
:1010380023439BB2136098BD780400200038014018
:10104800005C00408080FFFF505C004002300020C0
:1010580080B485B000AF78607B68DB88002B04D152
:101068007B680322DA76032367E07B6803F10C02CE
:101078007B685A617B680222DA817B6800225A61A8
:101088007B681B7803F07F03002B09D17B681B7AF0
:101098009AB27B689A817B680122DA7601234CE058
:1010A8007B681B7803F07F03012B07D17B68002244
:1010B8009A817B680122DA7601233EE07B681B78FF
:1010C80003F07F03022B34D17B689B88FB73FB7B87
:1010D80003F00F03BB73FB7B03F07003002B13D0EB
:1010E800BB7B9B0003F1804303F5B8431B689BB2AD
:1010F80003F03003102B02D17B6801229A817B68B0
:101108000122DA76012318E0BB7B9B0003F18043C0
:1011180003F5B8431B689BB203F44053B3F5805FF3
:1011280002D17B6801229A817B680122DA76012349
:1011380003E07B680422DA76042318461437BD4698
:101148005DF8047B704700BF80B483B000AF78605F
:101158007B6803F109027B685A617B680122DA81A6
:101168007B680122DA76012318460C37BD465DF804
:10117800047B704780B500AF002000F0E3FB00203F
:101188004FF4007100F0F0FB0020102100F012FC79
:101198000020182100F040FD0020582100F01AFD21
:1011A800002000F0C7FC0020402100F075FD002061
:1011B80000F098FC01204FF4C06100F0D5FB01203D
:1011C8004FF4807100F006FD0120042100F046FD77
:1011D8000120002100F026FC0120302100F0EAFB6C
:1011E8000020FFF75DFA0E4B00229A760D4B1B7A12
:1011F80003F040039B11DAB2094B1A72084B1B7AB1
:10120800DAB2084B1B7A03F020035B11DBB21343FD
:10121800DBB2DAB2024B1A72014B00225A7280BD5D
:1012280078040020FC1F000880B483B000AF786009
:101238007B68074A5A617B681222DA817B6801223F
:10124800DA76012318460C37BD465DF8047B7047F3
:10125800E81F000880B483B000AF78607B68134A49
:101268005A617B68DA88114B1B789BB29A4205D188
:101278000E4B1B789AB27B68DA810CE07B68DB88BE
:10128800212B03D97B682222DA8104E07B680022C3
:10129800DA76002303E07B680122DA760123184618
:1012A8000C37BD465DF8047B704700BFFC1F000883
:1012B80080B483B000AF78607B685B88DBB2032BB7
:1012C80026D801A252F823F0E1120008EF12000814
:1012D800FD1200080B1300087B68154A5A617B68E9
:1012E8000422DA8119E07B68124A5A617B68262257
:1012F800DA8112E07B680F4A5A617B681E22DA8124
:101308000BE07B680C4A5A617B681A22DA8104E098
:101318007B680322DA76032303E07B680122DA760E
:10132800012318460C37BD465DF8047B704700BFA3
:101338006C200008702000080000002080B500AF75
:101348001C4B5B78062B34D11A4B1B7803F01F0318
:10135800012B2ED1174B5B881B0A9BB2222B11D174
:10136800144B154A5A61134BDA88124BDA80114B29
:101378004A22DA810F4B0122DA7610485A21FFF708
:1013880099F816E00B4B5B881B0A9BB2212B10D1F6
:10139800084B0B4A5A61074BDA88064BDA80054B33
:1013A8000922DA81034B0122DA7604485921FFF732
:1013B80081F880BD78040020202000080038014012
:1013C8000E20000880B500AF084B1B7803F06003BF
:1013D800202B0AD1054B5B780A2B06D104485821EB
:1013E800FFF768F8014B0122DA7680BD7804002007
:1013F8000038014080B500AF1E4A1E4BD3F8883034
:1014080043F47003C2F888301B4A1B4B1B6843F037
:10141800010313601849184B5A68184B13404B6066
:10142800154A154B1B6823F0847323F4803313602B
:10143800114A114B1B6823F4802313600E4A0E4B8C
:101448005B6823F4FE0353600B4A0B4BDB6A23F003
:101458000F03D3620849084B1A6B094B13400B63FF
:10146800054B00229A6000F00DF8024B4FF0006225
:101478009A6080BD00ED00E0001002400CC07FF8CB
:10148800CCFC00FF80B483B000AF00237B60002356
:101498003B60324A314B1B6843F4803313602F4B57
:1014A8001B6803F400333B607B6801337B603B6857
:1014B800002B03D17B68B3F5A06FF0D1274B1B68D5
:1014C80003F40033002B02D001233B6001E000232A
:1014D8003B603B68012B3CD1214B12221A601F4A0A
:1014E8001E4B5B6853601D4A1C4B5B6853601B4A6C
:1014F8001A4B5B6843F480635360184A174B5B6868
:1015080023F47C135360154A144B5B6843F4E813C7
:101518005360124A114B1B6843F08073136000BF7D
:101528000E4B1B6803F00073002BF9D00B4A0B4BD2
:101538005B6823F003035360084A084B5B6843F079
:101548000203536000BF054B5B6803F00C03082BD4
:10155800F9D10C37BD465DF8047B70470010024096
:101568000020024080B400AFBD465DF8047B7047A0
:1015780080B500AF02482521FEF79CFFFEE700BFBB
:101588000038014080B500AF02482521FEF792FFE0
:10159800FEE700BF0038014080B500AF02482521B2
:1015A800FEF788FFFEE700BF0038014080B500AFB6
:1015B80002482521FEF77EFFFEE700BF0038014004
:1015C80080B500AF02482521FEF774FF80BD00BF3B
:1015D8000038014080B500AF02482521FEF76AFFB8
:1015E80080BD00BF0038014080B500AF024825210A
:1015F800FEF760FF80BD00BF0038014080B500AF36
:1016080002482521FEF756FF80BD00BF0038014083
:1016180080B483B000AF7860034A7B6813600C37EE
:10162800BD465DF8047B7047D800424280B483B061
:1016380000AF78600B46FB70FB78002B06D0094999
:10164800084B5A697B6813434B6106E00549054B13
:101658005A697B68DB4313404B610C37BD465DF824
:10166800047B70470010024080B483B000AF7860FC
:101678000B46FB70FB78002B06D00949084BDA694A
:101688007B681343CB6106E00549054BDA697B6843
:10169800DB431340CB610C37BD465DF8047B7047D4
:1016A8000010024080B487B000AF78603960002332
:1016B8007B6100233B610023FB6000237B617CE0AE
:1016C8007B69012202FA03F33B613B681A683B69B4
:1016D8001340FB60FA683B699A426BD13B681B79FF
:1016E800012B03D03B681B79022B34D17B689A68A5
:1016F8007B695B00194603238B40DB431A407B68F8
:101708009A607B689A683B685B7919467B695B00DD
:1017180001FA03F31A437B689A607B689B889AB244
:101728007B699BB2194601238B409BB2DB439BB27A
:1017380013409AB27B689A807B689B889AB23B6810
:101748009B7919467B699BB201FA03F39BB2134359
:101758009AB27B689A807B681A687B695B00194635
:1017680003238B40DB431A407B681A607B681A6846
:101778003B681B7919467B695B0001FA03F31A433E
:101788007B681A607B68DA687B699BB25B0003211F
:1017980001FA03F3DB431A407B68DA607B68DA6896
:1017A8003B68DB7919467B695B0001FA03F31A434E
:1017B8007B68DA607B6901337B617B690F2B7FF67D
:1017C8007FAF1C37BD465DF8047B704780B485B099
:1017D80000AF78600B467B8013467B700023FB606C
:1017E8000023BB607B787A8802F00702920093405E
:1017F800FB607B88DB089BB218467B88DB089BB2C2
:101808001A467B68083253F822207B8803F00703C6
:101818009B0019460F238B40DB4302EA03017B68D8
:1018280000F1080243F822107B88DB089BB21A46B5
:101838007B68083253F82220FB681343BB607B881F
:10184800DB089BB21A467B680832B96843F8221055
:101858001437BD465DF8047B704700BF80B483B081
:1018680000AF7860054A7B6843F0BF6343F40033F8
:10187800D3600C37BD465DF8047B704700ED00E08F
:1018880080B487B000AF786000237B6100233B61A0
:101898000F23FB607B68DB78002B3AD0274BDB6893
:1018A800DB4303F4E0631B0A7B617B69C3F1040338
:1018B8003B617B69FA6822FA03F3FB607B685B781B
:1018C8001A463B6902FA03F37B617B689B781A46E8
:1018D800FB6813407A6913437B617B691B017B6159
:1018E800174A7B681B787969C9B213440A4683F89A
:1018F8000023134A7B681B785B09DBB218467B68B8
:101908001B7803F01F03012101FA03F342F820308A
:101918000FE00B497B681B785B09DBB218467B68D4
:101928001B7803F01F0301229A4000F1200341F8BD
:1019380023201C37BD465DF8047B704700ED00E0AE
:1019480000E100E080B483B000AF0346FB800549A6
:10195800FA884FF6F87313400B600C37BD465DF8F4
:10196800047B7047505C004080B483B000AF0346EE
:101978000A46FB711346BB80FB799B0003F1804349
:1019880003F5B843FA79920002F1804202F5B842B1
:10199800126892B222F4EC4222F0700291B2BA8834
:1019A8000A4392B292B21A600C37BD465DF8047BC6
:1019B800704700BF90B482B000AF03460A46FB717F
:1019C8001346BB80FB799B0003F1804303F5B843C2
:1019D8001B689BB223F4E04323F040039CB2BB880E
:1019E80003F010039BB2002B02D084F010039CB2CA
:1019F800BB8803F020039BB2002B02D084F02003A5
:101A08009CB2FB799B0003F1804303F5B843044A79
:101A1800224392B21A600837BD4690BC704700BF97
:101A28008080FFFF90B482B000AF03460A46FB7186
:101A38001346BB80FB799B0003F1804303F5B84351
:101A48001B689BB223F4804323F070039CB2BB88CD
:101A580003F480539BB2002B02D084F480539CB2D1
:101A6800BB8803F400539BB2002B02D084F40053CC
:101A78009CB2FB799B0003F1804303F5B843044A09
:101A8800224392B21A600837BD4690BC704700BF27
:101A98008080FFFF90B482B000AF0346FB71FB79F2
:101AA8009B0003F1804303F5B8431B689BB223F402
:101AB800E04323F040039CB284F010039CB284F00E
:101AC80020039CB2FB799B0003F1804303F5B843E4
:101AD800034A224392B21A600837BD4690BC704749
:101AE8008080FFFF90B482B000AF0346FB71FB79A2
:101AF8009B0003F1804303F5B8431B689BB223F4B2
:101B0800804323F070039CB284F480539CB284F425
:101B180000539CB2FB799B0003F1804303F5B84363
:101B2800034A224392B21A600837BD4690BC7047F8
:101B38008080FFFF80B483B000AF0346FB71FB7960
:101B48009B0003F1804202F5B842FB799B0003F148
:101B5800804303F5B8431B689BB223F4F8731B0555
:101B68001B0D9BB243F07F4343F47F0343F40043D0
:101B780043F080039BB29BB213600C37BD465DF8FF
:101B8800047B704780B483B000AF0346FB71FB79D8
:101B98009B0003F1804202F5B842FB799B0003F1F8
:101BA800804303F5B8431B689BB223F4F8731B0505
:101BB8001B0D9BB243F07F4343F47F0343F401437F
:101BC80043F080039BB29BB213600C37BD465DF8AF
:101BD800047B704780B483B000AF03460A46FB71AC
:101BE8001346BB800B4B1B689BB21A46FB79DB0084
:101BF800134403F1005303F540535B001A46BB88B6
:101C08005B089BB25B0013600C37BD465DF8047B34
:101C1800704700BF505C004080B483B000AF0346FB
:101C28000A46FB711346BB800A4B1B689BB21A46D7
:101C3800FB79DB001A44084B13445B001A46BB8847
:101C48005B089BB25B0013600C37BD465DF8047BF4
:101C5800704700BF505C00400430002080B483B05F
:101C680000AF03460A46FB711346BB80084B1B684E
:101C78009BB21A46FB79DB001A44064B13445B00FF
:101C88001A46BB8813600C37BD465DF8047B704765
:101C9800505C00400230002080B485B000AF03469D
:101CA8000A46FB711346BB801A4B1B689BB21A4647
:101CB800FB79DB001A44184B13445B00BB60BB88FC
:101CC8003E2B12D9BB885B09FB81BB8803F01F033D
:101CD800002B02D1FB89013BFB81FB899B0243F46A
:101CE80000431A46BB681A600FE0BB885B08FB819B
:101CF800BB8803F00103002B02D0FB890133FB8171
:101D0800FB899B021A46BB681A601437BD465DF80A
:101D1800047B7047505C00400630002080B489B0D6
:101D280000AF78600B467B8013463B803B880133CD
:101D38005B107B617B8803F1005303F540535B0024
:101D4800BB617B69FB611BE07B681B783B617B683F
:101D580001337B607B681B781B021A463B6913437F
:101D6800FB60BB699A1CBA61FA6892B21A80BB69B7
:101D78000233BB617B6801337B60FB69013BFB611C
:101D8800FB69002BE0D12437BD465DF8047B704722
:101D9800002103E00B4B5B58435004310A480B4BBE
:101DA80042189A42F6D30A4A02E0002342F8043B5A
:101DB800084B9A42F9D3FFF71DFB00F02BF8FEF70A
:101DC80031FAFEE7EC20000800000020480400205B
:101DD8004804002094040020FEE70000014600208B
:101DE8000246034600F098B838B5084B084DED1A7E
:101DF800AC1018BFED1805D0013C55F8043D9847C4
:101E0800002CF9D1BDE8384000F060B9E82000089E
:101E1800EC20000870B50F4E0F4D761BB61018BF9A
:101E2800002405D0013455F8043B9847A642F9D15F
:101E38000A4E0B4D761B00F043F9B61018BF00246C
:101E480006D0013455F8043B9847A642F9D170BD35
:101E580070BD00BFE0200008E0200008E82000086E
:101E6800E0200008931E222B10D80A2A10B506D0AD
:101E780000230C46194400F00FF8204610BD002836
:101E8800F6DA2D230B7040420123F2E70020087098
:101E9800704700BFFFF7E6BFF0B5DFF878E01646F9
:101EA80004460F46BEE80F008BB06D460FC5BEE86E
:101EB8000F000FC59EE80300B31E45F8040B222B44
:101EC800297022D87D1E2846002200E01A46B4FB5D
:101ED800F6F10AAB06FB114423440C4613F8283CE0
:101EE80000F8013F531C0029F0D1F954BB184AB13E
:101EF800197815F8010F29700134111B8C4203F869
:101F08000109F5DB38460BB0F0BD002038700BB086
:101F1800F0BD00BFA02000082DE9F047254C25683A
:101F2800D5F848410646884692469946CCB360683B
:101F38001F2818DC431C7EB104EB80050121C5F87D
:101F480088A0D4F8887101FA00F21743022EC4F869
:101F58008871C5F808911ED00230636044F820806B
:101F68000020BDE8F087144B03B34FF4C870AFF3FB
:101F780000800446D0B1D5F84831002780E88800B1
:101F8800C5F8484138460123C4F88871C4F88C71F3
:101F9800002EE1D0D0E7D4F88C110A43C4F88C2184
:101FA800DAE705F5A674C5F84841C0E74FF0FF30F9
:101FB800BDE8F0879C20000800000000024B13B128
:101FC8000248FFF70BBF704700000000F11D000832
:101FD80068656C6C6F0A0D006F6B0A0D00000000DD
:101FE80012010002000000408304105700020102A1
:101FF8000301000009022200010100E03209040087
:10200800000103010200092100010001224A000722
:102018000581030400FF000005010902A10109016F
:10202800A10005091901290315002501950375016A
:1020380081029501750581010501093009310938C9
:102048001581257F750895038106C0093C05FF09A0
:10205800011500250175019502B12275069501B19A
:1020680001C00000040309042603530054004D0076
:102078006900630072006F0065006C006500630012
:10208800740072006F006E00690063007300000046
:102098004300000020000020303132333435363719
:1020A80038396162636465666768696A6B6C6D6E0E
:1020B8006F707172737475767778797A00000000A2
:1020C800F8B500BFF8BC08BC9E467047F8B500BF1D
:0820D800F8BC08BC9E467047ED
:0820E000C51F0008F50100080E
:0420E800CD0100081E
:1020EC001A03530054004D0033003200310030000D
:1020FC0000000000000000000000000000000000D4
:10210C00000000000C03002074030020DC030020FE
:10211C0000000000000000000000000000000000B3
:10212C0000000000000000000000000000000000A3
:10213C0000000000982000080000000000000000D3
:10214C000000000000000000000000000000000083
:10215C000000000000000000000000000000000073
:10216C000000000000000000000000000000000063
:10217C000000000000000000000000000000000053
:10218C000000000000000000000000000000000043
:10219C000000000000000000000000000000000033
:1021AC000000000000000000010000000000000022
:1021BC000E33CDAB34126DE6ECDE05000B000000E7
:1021CC000000000000000000000000000000000003
:1021DC0000000000000000000000000000000000F3
:1021EC0000000000000000000000000000000000E3
:1021FC0000000000000000000000000000000000D3
:0400000508001D9939
:00000001FF
